:1000000001308A0032290000FF00030E8301A100A5
:100010000A08A0008A010408A2007708A300780853
:10002000A4007908A5007A08A600831383120B1E8A
:100030001B288B182C28220884002308F70024088A
:10004000F8002508F9002608FA0020088A00210E89
:100050008300FF0E7F0E09008A110A124B280A1036
:100060008A100A118207FF34FF34FF340034003451
:1000700000349F34FF3400344534E934FF34B03465
:1000800000340034FF340034003400340034FF34D2
:10009000FF34FF34FF34FB0A7B08083C031CFB01E0
:1000A0008B108A110A121B288316260B5E288312D6
:1000B00085155A285B2885116228831683128515B9
:1000C0000000851108008316A3012308193C031CB6
:1000D000C2280730A400A41B8628273023078400E9
:1000E00083130008A500F7002408F80003197C28F2
:1000F0000310F70CF80B7828003077180130A500B2
:10010000A600831254208316A4036B280730A40092
:10011000A41BA3285B302307840083130008A500D9
:10012000F7002408F800031999280310F70CF80BBE
:100130009528003077180130A500A60083125420BE
:100140008316A40388280730A400A41BC0284130CC
:100150002307840083130008A500F7002408F80093
:100160000319B6280310F70CF80BB22800307718E3
:100170000130A500A600831254208316A403A528ED
:10018000A30A652883120800F6017608193C031CAF
:10019000DD285B30760784008313FF308000273032
:1001A000760784008313FF30800041307607840097
:1001B0008313FF308000F60AC52863208A110A12D3
:1001C0005529F6017608193C031C08295B3076078F
:1001D000840083138316220883122F20F8008000E6
:1001E0002730760784008313083083162207831292
:1001F0002F20F800800041307607840083131030F0
:100200008316220783122F20F8008000F60AE228C6
:10021000632028308316A300A330840083130008D2
:1002200003191F290630F800F701F70B1529F80B01
:1002300014297B30F700F70B1B29800B122983123E
:10024000080003308316A202031C3029A230840068
:1002500083130008031930292E292E29800B2D29FC
:100260008312080003081F39830083168610831247
:100270008614F601FB01831620101F149F141F150E
:100280009F1107309C008313103086008500010801
:10029000C7390838810083120B1683160117C03046
:1002A00083128B04FF308100C4288316A1017B08D0
:1002B000F73E03186F2A093E8312712A83168614AB
:1002C0008312861C7A298316A2018312E120C8308A
:1002D0008316A2008312212101308316A20083120B
:1002E000E120C8308316A200831221218316A201C7
:1002F0008312E12083166F2A831686148312861CCC
:10030000992901308316A2008312E120C830831698
:10031000A200831221218316A2018312E120C8309A
:100320008316A2008312212101308316A2008312BA
:10033000E12083166F2A831686148312861CB9293E
:1003400002308316A2008312E120C8308316A20077
:100350008312212103308316A2008312E120C830CA
:100360008316A2008312212102308316A200831279
:10037000E12083166F2A831686148312861CD929DE
:1003800003308316A2008312E120C8308316A20036
:100390008312212102308316A2008312E120C8308B
:1003A0008316A2008312212103308316A200831238
:1003B000E12083166F2A831686148312861CF9297E
:1003C00004308316A2008312E120C8308316A200F5
:1003D0008312212105308316A2008312E120C83048
:1003E0008316A2008312212104308316A2008312F7
:1003F000E12083166F2A831686148312861C192A1D
:1004000005308316A2008312E120C8308316A200B3
:100410008312212104308316A2008312E120C83008
:100420008316A2008312212105308316A2008312B5
:10043000E12083166F2A831686148312861C392ABC
:1004400006308316A2008312E120C8308316A20072
:100450008312212107308316A2008312E120C830C5
:100460008316A2008312212106308316A200831274
:10047000E12083166F2A831686148312861C592A5C
:1004800007308316A2008312E120C8308316A20031
:100490008312212106308316A2008312E120C83086
:1004A0008316A2008312212107308316A200831233
:1004B000E12083166F2A831686148312861C6C2A09
:1004C00083162108A2008312E12083162108063C2E
:1004D000031CA101A10A831283166F2A83165729D0
:1004E00063000A108A140A1182075E297C299B295D
:0C04F000BB29DB29FB291B2A3B2A5B2AC5
:02400E007A3FF7
:00000001FF
;PIC16F877A
;CRC=5F4D  CREATED="21-out-21 11:56"
